:020000040000FA
:10000000488D0020F93E000001700000A13D000075
:10001000A13D0000A13D0000A13D0000A13D000068
:10002000A13D0000A13D0000A13D0000E939000014
:10003000A13D0000A13D000091390000E96F0000E2
:10004000D13E0000D13E0000D13E0000D13E000074
:10005000D13E0000D13E0000D13E0000D13E000064
:10006000D13E0000D13E0000D13E0000D13E000054
:10007000D13E0000D13E0000D13E0000D13E000044
:10008000D13E0000D13E0000D13E0000D13E000034
:10009000D13E0000D13E0000D13E0000D13E000024
:1000A000D13E0000D13E0000D13E0000D13E000014
:1000B000D13E0000D13E0000D13E0000D13E000004
:1000C000D13E0000D13E0000D13E0000D13E0000F4
:1000D000D13E0000D13E0000D13E0000D13E0000E4
:1000E000D13E0000D13E0000D13E0000D13E0000D4
:1000F000D13E0000D13E0000D13E0000D13E0000C4
:100100007BB972B90029BEBF00204FF0004106E064
:1001100008BF00281CBF6FF000414FF0FF3000F017
:10012000BDB9ADF1080C6DE904CE002909DB002B47
:100130001ADB00F04DF8DDF804E0DDE9022304B03D
:100140007047404261EB4101002B1BDB00F040F89F
:10015000DDF804E0DDE9022304B0404261EB410137
:10016000524263EB43037047524263EB430300F098
:100170002FF8DDF804E0DDE9022304B0404261EB32
:1001800041017047524263EB430300F021F8DDF870
:1001900004E0DDE9022304B0524263EB43037047FD
:1001A00053B94AB9002908BF00281CBF4FF0FF31DE
:1001B0004FF0FF3000F072B9ADF1080C6DE904CEDC
:1001C00000F006F8DDF804E0DDE9022304B0704732
:1001D0002DE9F047089E04468846002B4BD18A4201
:1001E000154667D9B2FA82F24AB1C2F1200701FA84
:1001F00002F320FA07F7954047EA030894404FEAD4
:10020000154E230CB8FBFEF71FFA85FC0EFB178872
:1002100043EA084307FB0CF1994209D9EB1807F1AF
:10022000FF3080F01B81994240F21881023F2B443D
:100230005B1AA4B2B3FBFEF00EFB103344EA034496
:1002400000FB0CFCA44509D92C1900F1FF3380F008
:100250000781A44540F2048102382C4440EA07405B
:10026000A4EB0C0400271EB1D4400023C6E90043D0
:100270003946BDE8F0878B4209D9002E00F0EB80AB
:100280000027C6E9000138463946BDE8F087B3FAD1
:1002900083F7002F47D18B4202D3824200F2FA80CB
:1002A000841A61EB030301209846002EE0D0C6E9D2
:1002B0000048DDE702B9FFDEB2FA82F2002A40F020
:1002C0008F80491B4FEA154E1FFA85F80127B1FBB5
:1002D000FEFC230C0EFB1C1143EA014308FB0CF14E
:1002E000994207D9EB180CF1FF3002D2994200F283
:1002F000CD808446591AA3B2B1FBFEF00EFB101458
:1003000043EA044408FB00F8A04507D92C1900F182
:10031000FF3302D2A04500F2B6801846A4EB0804D1
:1003200040EA0C409FE7C7F1200CBB4022FA0CFECC
:100330004EEA030E01FA07F420FA0CF521FA0CF349
:100340004FEA1E482543B3FBF8F92C0C08FB193380
:100350001FFA8EFA44EA034309FB0AF49C4202FAAC
:1003600007F200FA07F10BD91EEB030309F1FF3086
:1003700080F087809C4240F28480A9F10209734496
:100380001B1BADB2B3FBF8F008FB103345EA034486
:1003900000FB0AFAA24508D91EEB040400F1FF3362
:1003A0006BD2A24569D90238744440EA0940A0FBE7
:1003B0000289A4EB0A044C45C2464B4654D351D0A3
:1003C000002E69D0B1EB0A0564EB030404FA0CFCBF
:1003D000FD40FC404CEA0505C6E90054002747E70C
:1003E000C2F1200320FA03F7954001FA02F021FA46
:1003F00003F34FEA154E3843010CB3FBFEF71FFA27
:1004000085F80EFB173341EA034107FB08F38B42E3
:1004100004FA02F407D9691807F1FF3C2FD28B4286
:100420002DD9023F2944CB1A81B2B3FBFEF00EFB5B
:10043000103341EA034100FB08F38B4207D96918E6
:1004400000F1FF3C17D28B4215D902382944C91A52
:1004500040EA07473BE73746304609E70746E7E605
:100460001846FBE64145ABD2B8EB020A69EB0E0237
:1004700001381346A4E76046E9E7184695E7674662
:10048000D1E781467CE702382C4447E7ACF1020C07
:100490002B442FE7384608E73746E9E6704700BFA8
:1004A0002A4B2DE9F74F1E68294C7368D4F800B029
:1004B0005B686A460D2130469847002837D1DDE950
:1004C000005A44F62067A5FB0701224A002307FBD8
:1004D0000A11FFF765FE00234FF0FF328B4208BF81
:1004E0008242804623D3ABFB05011A4A00230BFB53
:1004F0000A11FFF755FE00234FF0FF328B4208BF71
:10050000824214D3736842461D680D21034630466B
:10051000A84760B9104A2368117859B1B3F5FA6F4A
:1005200036BF4FF4FA63A3F5FA631070236003B08B
:10053000BDE8F08F03F5FA6344F61F618B42236038
:1005400082BF012313702760F1E700BF5000002035
:100550004C00002040420F00B838002070B5134D09
:10056000134E044663685B6C43B12046984728B13C
:1005700063681B6C13B12046984700B970BD63686F
:100580005B6B002BEED0204698470028EAD06368CA
:100590009B694BB14022294620469847024629468E
:1005A000304606F035FADDE71A46F8E7381800203D
:1005B0005400002013B54FF08053084CD3F8A82006
:1005C000D3F8A4300649CDE9002300231A4620467B
:1005D00004F074F9204602B010BD00BFB9680020D5
:1005E00031830000F0B472B6204ADFF88CC00023DB
:1005F00013604FF0E0221C46516801F00F010131F9
:100600004FF0FF371E46A20002F1604202F5614240
:10061000C2F88070C2F880710022D518654401329A
:10062000082A85F80063F8D10134A14203F10803D8
:10063000E9DC0F4B4FF020625A6040F2FA529860AA
:10064000DA6000221E6111469C1801320C2A2176C4
:10065000FAD14FF0FF3259629A62064ADA621F22DB
:100660001A63D0E90001F0BC05F0F4BD10E000E031
:1006700000ED00E0020000C000E100E080EA11208F
:10068000034B33F8100080EA012080B2704700BFAE
:10069000808000002DE9F04FA248A34EA34CA44D4A
:1006A00087B004F087FDA34B1860A34804F082FDD7
:1006B0003060A24804F07EFD2060A14804F07AFD7D
:1006C0002860A04804F076FD9F4B186030684368AE
:1006D00009221F6800210123B847306843680922B6
:1006E0005E6800210123B047984E994B32689A42C8
:1006F00022D033604FF4FA7005F096FA002333608D
:100700004FF08043D3F81C35B02B15D02868914F9B
:1007100043683A46D3F800804FF480310823C0473D
:100720003B68013308D07B68013305D001F012FF2C
:100730004FF48030FFF756FF4FF0804300273760BB
:100740003A46C3F81C7584498448854E07F033FA4D
:1007500064221146814805F047FD23681B689868AC
:1007600001F088FE1C223946304606F038FD4FF471
:100770000053336122687B4B736141F6FF73B361B1
:10078000536823B19B6C13B1774910469847206892
:1007900043689B6A03B19847DFF8C481734F012215
:1007A0000DF10701404606F086F900B338689DF860
:1007B00007106F4B421C23293A60195417D10021AE
:1007C00099541B78493B112B0FD8DFE803F0160E24
:1007D000920E0E090E0E0E0E1C0E0E130E193C6913
:1007E00064490222206805F02FFD00233B6005F0DC
:1007F000D1F9D4E73C226049F4E711225F49F1E7DF
:1008000003225F49EEE7102200215E48DFF87CB149
:1008100006F005FC1022824600215B4806F0FFFB33
:10082000002681464E45E0D206EB0A01A9EB0602FE
:100830005944404606F03FF9002801DD0644F1E73F
:1008400005F0A8F9EEE7102200214E48DFF854A188
:1008500006F0E5FB1022064600214B4806F0DFFBC0
:100860008146D0B1286843680021DB689847286832
:10087000436806F580369B684A46314698472868A3
:10088000DAF8002043684149D3F804A00A444B46F3
:100890003146D04703223E49A4E7CAF80060F9E791
:1008A00010220021374806F0BAFB102282460021B0
:1008B000354806F0B4FB81462868364A43680AF595
:1008C00080311E68DFF8CCA04B46B0470026324688
:1008D000B14506D1304902A803F0F0FF0C2202A96D
:1008E00080E711461AF80600FFF7C8FE01360246F7
:1008F000EEE74FF02002EFF3118382F31188BFF38C
:100900006F8F06F072FB01F025FEBFF34F8F234976
:10091000234BCA6802F4E0621343CB60BFF34F8FEE
:1009200000BFFDE7A482000018000020080000209E
:100930004800002014000020AB820000B2820000BA
:10094000BC820000CF82000050000020FC7F00200D
:100950003581730770000020A10400001C000020F6
:1009600054000020B94800205D0500000C00002064
:10097000781800202E830000D5820000108300002C
:10098000208300007918002082180020B818002069
:1009900024830000B93800202883000000ED00E027
:1009A0000400FA05100000200B6801330B60014BB6
:1009B0001B681847889A00202DE9F04F85B09B46A8
:1009C0000E9CDFF890A0012CB8BF0124012B0CBFB6
:1009D0003023202315468046894601940293012640
:1009E0000A2700220AF101040AB9AA451FD2B5FB61
:1009F000F4F049463030C04701360122013F012F53
:100A0000B5FBF4F14FF00A0304FB1155BAFBF3FAFE
:100A1000E8D1494605F13000C047BBF1030F03D1CF
:100A2000019B9C1B002C0FDC05B0BDE8F08F019BE7
:100A3000BB42E3DBBBF1020FE0D8494602980392C8
:100A40000136C047039AD9E749462020C047013CF8
:100A5000E8E700BFFFC99A3B13B502AC002344F896
:100A6000043D02460B460348214605F02DFE02B028
:100A700010BD00BFA909000010B54FF02003EFF32F
:100A8000118483F31188BFF36F8F00F039F8094A9E
:100A90000123C2F840354FF08042C2F87835064B4A
:100AA0004FF0FF329A62DA6284F31188BFF36F8FDE
:100AB000002010BD00E0014000ED00E0BFF34F8FCB
:100AC0000549064BCA6802F4E0621343CB60BFF3EA
:100AD0004F8F00BFFDE700BF00ED00E00400FA0506
:100AE000054B1B68082B01BF044B1868B0FA80F057
:100AF000400918BF00207047300100103401001079
:100B000008B54FF080430022C3F80C21C3F8102130
:100B1000C3F838254FF0805203F54043D2F804144F
:100B2000C3F82015D2F80814C3F82415D2F80C1411
:100B3000C3F82815D2F81014C3F82C15D2F81414E1
:100B4000C3F83015D2F81814C3F83415D2F81C14B1
:100B5000C3F84015D2F82014C3F84415D2F8241471
:100B6000C3F84815D2F82814C3F84C15D2F82C1441
:100B7000C3F85015D2F83014C3F85415D2F8341411
:100B8000C3F86015D2F83814C3F86415D2F83C14D1
:100B9000C3F86815D2F84014C3F86C15D2F8442491
:100BA000C3F87025FFF79CFF10B13E4B3E4A1A6018
:100BB000FFF796FF18B13D4BFB22C3F81825FFF74E
:100BC0008FFF48B13A493B4B0A681B6822F00F027D
:100BD00003F00F0313430B60FFF782FF18B1364B8E
:100BE0004FF400721A604FF08043D3F80024D1070D
:100BF00044BF6FF00102C3F800244FF01023D3F874
:100C00000C22D2071ED52D4B0122C3F80425D3F8A0
:100C10000024002AFBD04FF01022D2F80C3223F02F
:100C20000103C2F80C32254B1A46D3F800140029F0
:100C3000FBD00021C3F80415D2F80034002BFBD000
:100C4000FFF73CFFD3F80022002A03DBD3F804327D
:100C5000002B23DA194B0122C3F80425D3F8002412
:100C6000002AFBD04FF010221221C2F80012D3F854
:100C70000024002AFBD04FF010231222C3F80422D4
:100C80000E4B1A46D3F800140029FBD00021C3F8FC
:100C90000415D2F80034002BFBD0D1E7084B094AE9
:100CA0001A6008BD8C5600404881030000F00040E7
:100CB000E40E0040580200104096024000E001405F
:100CC0008C9A00200090D0032DE9F04F0779484C12
:100CD000FE00A31905461B7985B003F0FF00002B29
:100CE00040F08380DFF814E144F837204FF0FF39FB
:100CF00002464FF0030A4FF00108885CFF2871D0CC
:100D000020F0800310F0800F4DF822305DD01F2BB3
:100D100087BF00F01F0CF3469C464FF0A04B08FA2B
:100D20000CFCCBF808C51F2B8ABF00F01F034FF047
:100D3000A040704603F5E07340F823A00132042A76
:100D4000DBD12868009BC0F86035019BC0F8643592
:100D5000029BC0F86835039BC0F86C3501238A7983
:100D600091F805C0C0F800350B89C0F80CC5C0F873
:100D70000425C0F808354B89C0F810350023C0F8A9
:100D800000324FF48E71C0F8003305F0B5FE4FF419
:100D90008871286805F0B0FE4FF48A71286805F064
:100DA000ABFE4FF48271286805F0A6FE54F8373088
:100DB00023B1286840F3073002F072FF3444012366
:100DC0000C48237105B0BDE8F08F1F2B87BF00F0E2
:100DD0001F0CF3469C464FF0A04B08FA0CFCCBF8D6
:100DE0000CC5A0E74DF82290A8E70348EAE700BF4A
:100DF000780000200000AD0B0500AD0B0003005093
:100E0000F0B40D461C461A490379D5F800C0AF88E6
:100E1000AE68ED6801EBC3010368C3F820C5C3F8F1
:100E20002475C3F82865C3F82C55C3F840C5C3F82A
:100E30004475C3F84865C3F84C5502F0010505EB4D
:100E40005202C3F81425E20710D414F0020203D0B2
:100E5000002D14BF08220422002DC3F80022E2B2A4
:100E600014BF0C230823F0BC05F04EBE1022F3E79C
:100E7000780000200379084A016802EBC302137965
:100E8000D1F80411DBB219B9981E18BF01207047C0
:100E900001201071704700BF78000020044A91685B
:100EA0009368CB1A23F07F438342F9D3704700BF86
:100EB00010E000E0034B044A1B68B3FBF2F3584315
:100EC000FFF7ECBF8C9A002040420F00064A10F05A
:100ED000800F00F00F0314BFD2F81005D2F81405EC
:100EE000D84000F00100704700700240054B1B68BD
:100EF000082B05D1044B1868003018BF012070473B
:100F0000002070473001001034010010054B10F034
:100F1000800FA3F1900208BF134600F00F0003EB0F
:100F20000010704708020020024A00231360024AA2
:100F3000137070471C7C0240DB68002007B5084A2C
:100F400000231370074A019302A81370012300F8CD
:100F5000043D054B1B68984703B05DF804FB00BFD8
:100F6000DA680020DD68002098020020F8B54D689E
:100F70000B4F954228BF15460C4606462A4609687F
:100F8000384606F0FFF860682368401BC6E9007524
:100F900060601D440030256018BF0120F8BD00BF0F
:100FA000A0020020F8B54C68944228BF14460646BB
:100FB0000D468CB1094F09682246384606F0E2F822
:100FC00037606B6874601B1B6B602B68201C2344AC
:100FD0002B6018BF0120F8BD0460F2E7A0020020DA
:100FE00007B500238DF804300B4BD3F82025ADF85E
:100FF0000620D3F8C034094A002B13680CBF4FF405
:1010000080714FF001210B431360054B01A81B6851
:10101000984703B05DF804FB0070024074010020A3
:101020009802002013B5124C0122236802FA01F144
:101030000B4323600F4B1B68194003060DD551B9B4
:1010400006238DF804308DF806008DF807100A4B42
:1010500001A81B68984702B010BD0029FBD10623E8
:101060008DF804308DF806008DF80720EFE700BFFB
:1010700074010020040100209802002008B5054BEF
:101080001A78104605F0C1FDBDE80840014610463B
:10109000FFF7C8BFDD680020074BBFF35B8F024638
:1010A00053E8000F00EA020143E8001CBCF1000F06
:1010B000F6D1BFF35B8F70470401002013B5FFF733
:1010C00033FF0D4B93F88E20032A12D0D3F88040C3
:1010D0007CB96FF08070FFF7DFFF06238DF80430D6
:1010E00008238DF80630054B8DF807401B6801A8D2
:1010F000984702B010BD00BF780100209802002080
:1011000013B5FFF711FF104B93F81E21032A05D1E9
:101110006FF48070FFF7C0FF02B010BDD3F810412C
:10112000002CF9D16FF48070FFF7B6FF06238DF81D
:10113000043088238DF80630044B8DF807401B6877
:1011400001A89847E8E700BF780100209802002036
:1011500008B5FFF7E9FE084B93F89E20032A05D156
:101160006FF00100BDE80840FFF796BFD3F890305C
:10117000002BF5D008BD00BF78010020204B13B52F
:10118000D3F80044C3F80044BFF36F8FBFF34F8F11
:10119000BFF36F8FBFF34F8FE1050BD5194B0122C2
:1011A0001A7002A800230193022300F8043D164B95
:1011B0001B689847A2050AD5124A002302A801938A
:1011C0001370032300F8043D0F4B1B689847630519
:1011D00013D50C4B1A7882B100221A70084B0121EA
:1011E000C3F80815582005F0C8FC02A80423019292
:1011F00000F8043D044B1B68984702B010BD00BFC7
:1012000000700240DA680020980200202DE9F04FBB
:10121000724B87B01A780193002A40F08280DFF881
:10122000C4B16F4B18686F4B1C68204079D010F028
:10123000012479D094FAA4F4B4FA84F40F2C86BF74
:10124000A4F110085FFA88F844F080084046FFF7E0
:101250005DFE4FFA88FABAF1000F064608F00F0556
:10126000828966DAD0E9003104A8984700B9306075
:101270005D4B82221A60019B059A01201870A040E4
:10128000B368DBF80040134424EA0000BAF1000F11
:10129000CBF80000B3600498544B77DA072D9BBF5E
:1012A000142101FB0533C3F8A006C3F800068CBF68
:1012B000C3F8A426C3F80426FFF718FEAB002DB22E
:1012C0006E004B4A4B49002871D1BAF1000FB5BFEF
:1012D00092468A4604242824B244474F474E1C4471
:1012E00005463560BFF36F8FBFF34F8F204605F083
:1012F00044FC0220FFF7DEFD3368002BF1D01E20F6
:10130000FFF7D8FD3B689B064FD50120FFF7D2FDC4
:10131000BAF8003003F1804303F51C331B68002B3F
:10132000DFD007B0BDE8F08F90FAA0F0B0FA80F4FB
:1013300084E7072D2D4B24D9D3F8C09419F4803FAE
:1013400018BF4FF000094B467168376804A8B847CA
:10135000049B002B8AD0059B4B4587D20120022598
:10136000A040B573C043FFF797FE06238DF80C30FD
:10137000234B8DF80E808DF80F501B6803A89847FB
:101380004FE705F5947153F82190DCE7072D9BBFDB
:10139000142101FB0533C3F8A007C3F800078CBF75
:1013A000C3F8A427C3F8042786E70220A8E7BAF108
:1013B000000FACBF28200420184405F0DEFB12EA21
:1013C0002A0A38BF8A463AF8153003F1804303F5FC
:1013D0001C331A68002AFCD0A3E700BFDB6800209A
:1013E00004010020740100201C7C024000700240B7
:1013F00080820000928200007474024004710240F6
:101400009802002038B5174BD3F86C44C3F86C44ED
:10141000BFF36F8FBFF34F8FFFF768FD38B9124AE4
:10142000136823F0011103F001130C43136001252D
:101430001CB9BDE83840FFF7E9BE94FAA4F3B3FA4B
:1014400083F30F2BD9B2C8BFA1F1100005FA03F343
:10145000CCBFC0B241F0800024EA0304FFF7E2FDF4
:10146000E6E700BF007002409C02002037B504464A
:10147000FFF75AFDFFF74AFD837B032B0CD1204673
:1014800005F0C3FB012303FA00F0C043FFF704FE9D
:10149000FFF7BCFE03B030BD0568002DF8D1204633
:1014A00005F0B3FB012303FA00F0C043FFF7F4FD9E
:1014B00006238DF80430044B8DF806408DF8075054
:1014C0001B6801A89847E3E798020020024A00231E
:1014D0001360024A1370704798020020DC680020F5
:1014E00038B5514B4FF40062C3F80024BFF36F8F3F
:1014F000BFF34F8FFFF7FAFC4C49A8B14FF0200320
:10150000EFF3118483F31188BFF36F8F0868484BA2
:10151000032200287ED149F2753008601A60086005
:1015200084F31188BFF36F8F4FF02003EFF3118422
:1015300083F31188BFF36F8F08683E4AC0230028E9
:101540006AD149F2753008601360086084F311882D
:10155000BFF36F8F344B0120C3F80005BFF36F8FCB
:10156000BFF34F8FD3F800040005FBD54FF40060A4
:10157000C3F80004BFF36F8FBFF34F8F4FF020030A
:10158000EFF3118483F31188BFF36F8F086800288D
:1015900044D149F275330B6010600B6084F31188FD
:1015A000BFF36F8F244B40F2E3721A600433402282
:1015B0001A60BFF36F8FBFF34F8FA3F604030024AD
:1015C0008022C3F81C25C3F830451C4B40F2FF12A3
:1015D0001A601B4B1C60FFF7A7FC1A4B1C701A4BC0
:1015E00002221A70FFF782FC98B14FF02003EFF34C
:1015F000118583F31188BFF36F8F08680C4B80B996
:1016000049F275320A6018600A6085F31188BFF3E9
:101610006F8F38BD1A6083E7136097E7002313606C
:10162000BCE71C60F1E700BF0070024000EC064020
:1016300014ED064014EC06400078024074010020CE
:1016400004010020DD680020DC6800200E4B002231
:1016500010B51A70A8B9FFF749FC0C4B0C4A0028CA
:101660000CBF184610460B4CC4F80403272002F0A8
:1016700017FB0123C4F80435BFF36F8FBFF34F8FFF
:1016800010BD0248EFE700BFDA6800200714E00150
:101690000714C00100700240034B1878012894BF62
:1016A00000200120704700BFDC6800201B4B70B594
:1016B0001C7884BB1A4A106001221A70264664F016
:1016C0007F05082CEDB20CBF4FF400714021284675
:1016D00005F0E7FA2846FFF719FC0134092C867358
:1016E00006608660EBD1002440212546204605F0A7
:1016F000D8FA2046FFF70AFC0134E4B2092C8573BE
:101700000560856001D1074870BD082C0CBF4FF4FF
:1017100000714021EAE70448F6E700BFDC680020DA
:10172000980200200000AD0B0500AD0B2DE9F84339
:10173000074605F06AFA4FF02003EFF3118583F3B3
:101740001188BFF36F8F17F00F0903D1274B1B7858
:10175000BB4246D1264A274B12681C68D243012659
:1017600092B286402243324298463CD13846FFF737
:10177000CDFB0C233A06844603FB09F32DD51E4A04
:101780000868134400F060408A68B0F1005F02F01E
:1017900001021DD1D2B9194ACCF8002007C983E84B
:1017A0000700CCF804300023CCF808308CF80E3059
:1017B000134B144834438022C8F80040C3F8042176
:1017C00085F31188BFF36F8FBDE8F8830E4AE3E716
:1017D0000AB90E4AE0E70E4ADEE70E4A13440E4A03
:1017E000DAE70E48ECE70E48EAE700BFDD680020C4
:1017F000740100200401002008010020BF6B0000DC
:1018000000E100E00000AD0BE16B00006D0F000097
:10181000A50F000098000020916B00000A00AD0B9E
:101820000B00AD0B044B40F48070C3F81805BFF3F8
:101830006F8FBFF34F8F70470070024000F00F03AF
:10184000072B11D810F0800F084A0BBF03F58873DF
:1018500003F5847302EB830352F8230008BF586832
:10186000431E5842584170470020704700700240A4
:1018700010B508220021044605F0B1FC0E4BD3F848
:1018800080242270D3F884246270D3F88824D3F89B
:101890008C1442EA01226280D3F89024D3F8941485
:1018A00042EA0122A280D3F89824D3F89C3442EA79
:1018B0000323E38010BD00BF0070024013B5FFF7A3
:1018C00033FB0F4B9A7B032A05D16FF48030FFF76F
:1018D000E3FB02B010BD1C687CB96FF48030FFF7E9
:1018E000DBFB06238DF80430064B8DF806408DF89F
:1018F00007401B6801A89847EBE705F0EEF9E8E719
:101900007801002098020020014B1878704700BF32
:10191000DD68002038B50246FFF7E8FA04461046B5
:1019200005F073F901238340DB4302F00F001B4AEB
:10193000BCB94FF02001EFF3118581F31188BFF39B
:101940006F8F11680B4013604000154B00F2C5709B
:1019500018605C6004331B6885F31188BFF36F8FD8
:1019600038BD4FF02001EFF3118481F31188BFF3EC
:101970006F8F1168072803EA0103136009D800F587
:101980009470084B002243F82020BFF36F8FBFF301
:101990004F8F84F31188BFF36F8FE1E7740100204C
:1019A0000078024000700240F7B501464FF0200376
:1019B000EFF3118483F31188BFF36F8FFFF7A6FA5B
:1019C0000546084605F021F9012311F0800F03FABE
:1019D00000F02A4E17D1336830EA03020AD00846D5
:1019E000FFF798FF0323AB7384F31188BFF36F8F66
:1019F00003B0F0BD2A60C043214A0340336013683E
:101A000003401360EEE701F00F02072A0FD8802988
:101A10001C4F1D4B28D002F2DA3252003A601A688D
:101A20001F68D2B242F002023A431A601B68144F98
:101A300032683B6862EA030C1CEA000FD4D022EA49
:101A400000021843002332602B600323AB738DF830
:101A500007300E4B386006228DF804208DF80610F2
:101A60001B6801A89847BFE740F2B4723A601A6851
:101A70001F68D2B242F00402D6E700BF0401002082
:101A8000740100200078024004780240980200208F
:101A9000F7B5164B164CD3F880542368154EDA432D
:101AA000154B37781B6892B238461A4305F0ADF8EB
:101AB000012303FA00F0104202D03846FFF774FF0A
:101AC00005F080056FF001103570FFF7E5FA236827
:101AD00043F00103236002A800230193052300F8CB
:101AE000043D064B1B68984703B0F0BD00700240F0
:101AF00074010020DD68002004010020980200200D
:101B0000554B2DE9F041D3F80453002229461646DF
:101B1000012400297CD1FFF7E9F9002869D14F4B56
:101B20001B78002B65D1960263D54D494C4E40F28F
:101B3000A9730B604B4B1C6814F0FF041CBF1868A2
:101B4000044040F2AA700860186810F0FF001CBF43
:101B50001968084040F2AB713160196811F0FF015B
:101B6000B4461CBF1E68314040F2AC76CCF8006031
:101B70001E6834403C4E08D037682743376040F237
:101B8000A977CCF800701C601C68354F40F2AD742A
:101B90003C601C68204008D0346844EA004434604B
:101BA00040F2AA743C60186018682D4840F2AE7488
:101BB0000460186801400DD0CC0748BF42F4000211
:101BC000C806274840F2AB74046019601B6848BF20
:101BD00042F00102336833F001111CBF05F0807040
:101BE000024313F0011F04D06B0544BF316042F47F
:101BF00080621E4F02F4000622F400044FF0010838
:101C0000E4B9FFF703FB2EB3BDE8F041FFF740BF97
:101C100091FAA1F31648B3FA83F39F00384407689A
:101C20003FB10660BFF36F8FBFF34F8F04FA03F02D
:101C3000024304FA03F321EA03016AE794FAA4F5E4
:101C4000B5FA85F557F8253008FA05F5984724EADE
:101C50000504D5E7BDE8F08100700240DB68002094
:101C600000780240047802409C0200206C7E000054
:101C700000710240F8B5114E114A34681268240C04
:101C80002404144301271CB940F2FF133360F8BD4C
:101C900094FAA4F5B5FA85F5E8B20F2DC6BF103851
:101CA000C0B240F0800000F00F03072B01D8FFF70F
:101CB0007BFE07FA05F524EA0504E4E77401002039
:101CC000040100200D4B802210B52720C3F8842189
:101CD00002F00AF880B10A4CFFF7CCFF0023C4F8E9
:101CE0000435BFF36F8FBFF34F8F272001F0E8FF5C
:101CF0004FF0FF33C4F8083310BD00BF00E100E02F
:101D00000070024008B5FFF7DDFF094BD3F804234C
:101D1000C3F808230022C3F80025BFF36F8FBFF379
:101D20004F8FFFF701F9034B01221A7008BD00BF66
:101D300000700240DC68002038B54FF02003EFF35C
:101D4000118583F31188BFF36F8F0F4B1B7803F05E
:101D5000FF0433B9002485F31188BFF36F8F204649
:101D600038BDFFF787FF094AD2F8003413F4007337
:101D7000F0D10121C2F82C15D2F80014890544BF16
:101D8000C2F82C351C46E6E7DA68002000700240F5
:101D9000F8B5234A234B244D47B233EA270328BF23
:101DA000134600F00F0401211B5D01FA03F3C5F88F
:101DB00004330646FFF78AF888BB002FB4BFD5F876
:101DC0001035D5F8143501FA04F1B5BF194319439C
:101DD000C5F81015C5F81415BFF36F8FBFF34F8FFB
:101DE000013C062C1BD8002F19DB4FF02003EFF32A
:101DF000118483F31188BFF36F8F3046FFF78AFD9C
:101E0000304604F002FF094A012303FA00F0136888
:101E100023EA0003136084F31188BFF36F8FF8BDCA
:101E2000518300005A83000000700240040100202A
:101E3000030610B504460AD400F00F03072B06D89A
:101E40009B00074AD358012B01D1FFF763FD054BD7
:101E5000C3F81845BFF36F8FBFF34F8F10BD00BF9E
:101E600044740240007002402DE9F041084D094ED3
:101E700007468846761B0024B44201D1BDE8F081B4
:101E80002819C36813B14246394698472C34F3E702
:101E9000E89D0020149E0020F0B40D4B0D4C0E4D1B
:101EA000E41AA4106C430025A54203D16FF0220070
:101EB000F0BC70471E6946B15F6897F802C087881A
:101EC000BC4502D13346F0BC184701352C33EBE753
:101ED000E89D0020149E0020A38B2EBAF0B40D4B79
:101EE0000D4C0E4DE41AA4106C430025A54203D1FD
:101EF0006FF02200F0BC70479E6946B15F6897F8AA
:101F000002C08788BC4502D13346F0BC1847013572
:101F10002C33EBE7E89D0020149E0020A38B2EBA03
:101F20002DE9F84F9046104B104A0F469B1A104966
:101F30009B10064601FB03FA002491464FF02C0B40
:101F4000A24502D16FF022000BE00BFB04935D6908
:101F50000DB90134F4E7424639463046A847002817
:101F6000F7D1BDE8F88F00BF149E0020E89D002047
:101F7000A38B2EBA13B5094C02ABE26843F8042DCB
:101F8000A168802001F0FAFA0199A268E3680A4486
:101F90005B1AA260E36002B010BD00BFE002002047
:101FA0002DE9F743434C94F84C50002D63D100F0D9
:101FB000C5FB00287BD0404B636204F1440363639C
:101FC0003E4BA3623E4B2062A3633E4AE3633E481E
:101FD0003E4BE2626361E06101F0C8FB00284BDB2D
:101FE00001F090F9002847DB02AE402306F8085DB7
:101FF0003046ADF802308DF8045001F029FA00287F
:102000003ADB802730468DF8007001F021FA002875
:1020100032DB2F49284601F097FB00282CDB2C49A6
:10202000384601F091FB002826DB2A4E2A4B2B4F25
:102030009B1B9B105F43AF4221D1294DDFF8A48049
:1020400005F1F00700260122AE61C5E904682846C3
:1020500011463C3505F035FDBD42F4D1002001F0BC
:102060006FFA002808DB802001F06AFA002803DB01
:10207000012384F84C30002003B0BDE8F083D6F88B
:1020800028904FF0000896F824205FFA88F39A42CF
:1020900002D801352C36CEE709EBC30259F83310CC
:1020A000107901F051FB08F101080028EBD04FF046
:1020B000FF30E1E7E00200200D220000991E000041
:1020C000DE680020211F0000691E0000DD1E0000E8
:1020D00015210000E89D0020149E0020A38B2EBA3D
:1020E0004C030020116D000008B509480378C3F3C4
:1020F000411300EB83035B6A3BB100F1080200F17E
:1021000010019847C043C00F08BD1846FCE700BF48
:10211000E002002037B500220B4601920546002858
:1021200052D12D4C39BB0822214604F04EFF002825
:1021300004DA802001F0ACF903B030BD2278E588E4
:10214000C2F3411304EB8303586BA06010B901F094
:102150009FF9EEE7C4E903550DB1D309ECD0FFF7C1
:10216000C3FF0028E5D02369AB42D4BFE360E5603C
:10217000FFF700FFE0E7D4E90212002A01AB05DC1B
:10218000024604F022FF0028D6DAD2E704F01DFF51
:10219000002804DA802001F07BF92846CAE701997B
:1021A000A268E3680A445B1AA260E360002BC3D113
:1021B0002378C3F3411304EB83035B6BA360FFF746
:1021C00093FF0028B5D0D3E78028B5D1024BDB6858
:1021D000002BB1D0CCE700BFE0020020014600F1A7
:1021E0000803BFF35B8F53E8002F42F0010043E880
:1021F000000CBCF1000FF6D1BFF35B8FD30702D404
:10220000014805F078BB7047B81700202DE9F04F62
:10221000974D6B6985B006460C46904663B9377892
:1022200007F01F07012F00F0A0800BD3022F00F052
:10223000E9806FF0150002E098470028EFD105B063
:10224000BDE8F08F72787088D8F80030092AF0D88D
:1022500001A151F822F000BF8122000051230000AB
:10226000332200005F230000332200009B22000085
:10227000A522000033220000D3220000DD2200004E
:1022800000201870587095F84E20824214BF022228
:1022900002461A7002232360D1E7C0B201F0C8F8E9
:1022A0000020CCE7020A131F012BC2D9072AC0D88D
:1022B0002B6A0021C0B21D78002DBAD05E789642FC
:1022C00003D1884200F0CC8001312B44F3E71B7826
:1022D000CCE095F84D201A700123C7E0C4B28DF808
:1022E000074054B1FF272E6AB846337843B9EB69EB
:1022F0001BB10DF107010320984785F84D40CFE74A
:102300007378042B08D0052B08D0022B01D196F846
:10231000058033781E44E8E7F778FAE79DF8073040
:102320004345F6D1002FF4D1F3788DF80C30727953
:10233000337943EA0223ADF80A30B3788DF80830D8
:1023400002A801F085F89DF8080001F0F9F8E0E72F
:1023500001287FF46EAF002085F84E006FE701285A
:102360007FF467AF85F84E009AE77078D8F80030B0
:102370000A2807D00B2809D000287FF45AAF18701C
:10238000587087E700201870276058E796F804A077
:1023900096F802B02E6AFF27B9464FF0000833784E
:1023A0003BB9EB6913B141460720984700202060F4
:1023B00045E77378042B04D0052B0BD033781E44EB
:1023C000EDE7B77896F80390BA45F7D1CB4508BF4B
:1023D000B046F3E7BA45F1D1CB45EFD1F3788DF8AC
:1023E0000C307279337943EA0223ADF80A30B378BE
:1023F0008DF8083002A801F02BF89DF8080001F0D4
:102400009FF8DBE773783079D8F800808DF8080002
:10241000012B17D00FD3032B7FF40BAF7488002C44
:102420007FF407AF01F034F8EB69002B3FF438AFCD
:1024300002A9082012E0414601F068F8002088F85F
:102440000100A1E77488002C7FF4F3AE01F046F898
:10245000EB69002B3FF424AF02A9092098471FE73E
:10246000022AC8F800307FF432AF5B88236017E798
:10247000E00200202DE9F341314D95F84C4007462C
:10248000002C4DD12F48E86101F070F9002848DB9D
:1024900000F038FF002844DB02AE402306F8084D68
:1024A0003046ADF802308DF8044000F0D1FF00282E
:1024B00037DB4FF0800830468DF8008000F0C8FF11
:1024C00000282EDB2049204601F03EF9002828DBB9
:1024D0001D49404601F038F9002822DB97F82430E6
:1024E000A34221D8194CDFF8688004F1F0070026D8
:1024F0000122A661C4E90468204611463C3405F077
:10250000E0FAA742F4D1002001F01AF8002808DB15
:10251000802001F015F8002803DB012385F84C30FA
:10252000002002B0BDE8F081BB6A03EBC40253F89F
:102530003410107901F008F90028F2DB0134CDE7FE
:10254000E0020020691E0000152100004C0300205D
:10255000116D000010B5064C94F84C0030B100F03D
:1025600011FF0028A4BF002084F84C0010BD00BF5C
:10257000E00200202DE9F04F6B4A6C4B6C499B1A2E
:1025800087B09B1000264B43044600934FF001197F
:102590003746B246B046934623783BB9654AA01CFD
:1025A000904200F0BF80FFF7E5FF24E06378052B41
:1025B0000AD8DFE803F07B09B57B0378E3781BB921
:1025C000A378DBB10137FFB223781C44E4E702FBB8
:1025D00003BADAF804108C4207D1DAF80830002B7D
:1025E000F0D0394620469847ECE7013300999942EC
:1025F000EDD14FF0FF3007B0BDE8F08F2C22F5E7AA
:1026000001FA05FC1CEA090F2DD00135102D0DD162
:1026100001339AF824209342EBDADAF82820A578DF
:1026200002EBC30210798542F2D1012594F803C070
:102630008DF814C094F805E094F804C04CEA0E2C10
:10264000ADF812C094F802C08DF810C01CF0800FD5
:10265000E8B2D5D005F1100C01FA0CFC1CEA090F08
:10266000D3D160F07F008DF8100004A8CDE90221DD
:10267000019304F091FCDDE9013203990028C4D1F3
:102680009DF81030A37013F0800F137118BF103530
:102690004FF0010315BFAB4003FA05F549EA030902
:1026A00049EA050990E700230121B2E7032E1DD175
:1026B000FDF780FF019060B104F038FD05461E482B
:1026C00004F034FD8542019903D12A46A01C04F090
:1026D00059FD2146002011F8023BDA1E5B08013B40
:1026E0000B44002A13DA0136F6B26DE7002EF0D162
:1026F000B8F1000F3FF47DAFA4EB080388F8023077
:10270000C3F3072388F8033088F80470EBE7885494
:10271000013B8D1893F800C005F801CC023AE0E7C0
:10272000A04651E7184666E7E89D0020149E002069
:10273000A38B2EBAE59D00206383000008B50448F2
:10274000FFF718FF0028024818BF002008BD00BF8F
:10275000089D002070B504460E46017910481546C4
:1027600004F066FBB0B16378212B0ED0222B08D089
:10277000202B12D1072229680C3804F003FD002019
:1027800070BD638800F8053CF9E70C380723286022
:102790003360F4E76FF01200F2E76FF01500EFE737
:1027A0002004002008B50146034804F04FFB10B197
:1027B000012300F8033C08BD2004002010B50C469E
:1027C0000146074804F028FB48B10A2C07D0032C27
:1027D00008BF012300F8AC4C08BF00F8943C10BDC2
:1027E0002004002007B502AB012203F8011D1946A1
:1027F00004F090FB6421034803F08EFA03B05DF807
:1028000004FB00BF2804002010B584680023C4F82E
:10281000B0300C4BC4F8AC00596804F1B00269B98F
:10282000C3E900224FF0FF320021074805F049F9C3
:10283000064B0020E060C4E9043010BD0A605A6015
:10284000F0E700BF2004002028040020956E00005F
:10285000014600F10803BFF35B8F53E8002F42F0FD
:10286000010043E8000CBCF1000FF6D1BFF35B8F11
:10287000D30702D4014805F03EB87047B8170020CE
:1028800010B501460B4804F0E1FA044688B1012373
:1028900000F8943C084803F019FA54F8A83C43B1F6
:1028A00014F8923C2BB1A4F1A000BDE81040FFF752
:1028B000CFBF10BD200400202804002008B5014629
:1028C000094804F0C3FA68B1012300F8933C50F8BA
:1028D000A83C3BB110F8913C23B1A038BDE80840BA
:1028E000FFF7B6BF08BD00BF2004002010B54FF0B1
:1028F0002003EFF3118283F31188BFF36F8F154C20
:10290000237833B982F31188BFF36F8F6FF04400DF
:1029100010BD013BDBB2237033B182F31188BFF3EA
:102920006F8F6FF00F00F3E70B4B1878012138B170
:10293000217082F31188BFF36F8F6FF00A00E7E711
:10294000197082F31188BFF36F8F044A11601870F9
:10295000DEE700BF206D00201F6D00200400004056
:10296000F8B54FF02002EFF3118382F31188BFF323
:102970006F8F294A1078441C147080B183F311883A
:10298000BFF36F8F4FF08043D3F80C3403F0011383
:10299000B3F1011F0CBF00206FF0430009E01F4D91
:1029A0002F783FB1107083F31188BFF36F8F6FF0F2
:1029B0000A00F8BD01262E7083F31188BFF36F8FD4
:1029C0004FF0804419B3384601F07AF9C4F8007129
:1029D000D4F80433C4F804632660D4F8002192B11B
:1029E0000022C4F800210E4A13F0010F4FF001033A
:1029F00008BFC4F808330020C2F8803101F050F954
:102A000000232B70BEE720BF40BF20BFE5E7C4F81E
:102A100000112660F4E700BF206D00201F6D00202C
:102A200000E100E070B54FF02002EFF3118382F374
:102A30001188BFF36F8F244D2A789AB183F31188E0
:102A4000BFF36F8F4FF08042D2F81C34D2F81824B5
:102A500003F0030343F48033934314BF6FF0430048
:102A6000002070BD01242C7083F31188BFF36F8F99
:102A70004FF08043154EC3F804210225C3F8181502
:102A8000C3F8045311F0030134604FF01806C3F883
:102A90000863C3F80C21C3F81021D3D11022C3F866
:102AA0003825C3F80463D3F81824D20302D4C3F83A
:102AB0000453C7E7C3F80443FFF752FF0028C1D10E
:102AC000034BC3F80041BDE71E6D00200800004025
:102AD00000E100E02DE9F0434FF080434E4DD3F884
:102AE0000891D3F80423D3F800E18046D3F8040317
:102AF000D3F804C1D3F80C11D3F810412F68AE6895
:102B00000435003485B002F0010218BF01242D689D
:102B1000B9F1000F03D04FF00009C3F80891BEF1DE
:102B2000000F69D04FF080434FF0000EC3F800E172
:102B30005AB14FF08043DFF8E4E001224FF0020980
:102B4000C3F80823CEF800901A61BCF1000F41D100
:102B500061B1324B4FF08049002119604046C9F8FD
:102B60000C11FFF7C3FE0123C9F8143074B14FF004
:102B7000804300210124C3F810114046C3F80443E8
:102B8000FFF7EEFE10B9264BC3F800414FB1224BC0
:102B900000221A601B6801934FF48E70019B00F0B5
:102BA0008FFB4EB11F4B00221A601B6802934FF43B
:102BB0009270029B00F084FB55B31B4B00221A60FD
:102BC0001B680393039B4FF4907005B0BDE8F0437E
:102BD00000F076BB4FF080430022C3F80421820747
:102BE000B6D50222C3F80823D3F81C349B07AFD113
:102BF0000029BCD00124ACE7002AA6D04FF08043C6
:102C0000D3F80C3403F00113B3F1011F9DD190E709
:102C100005B0BDE8F08300BF1C010040340C00404B
:102C200000E100E02401004020010040014601488D
:102C300004F061BEF89C0020020600F00F0303D5EB
:102C4000072B05D909487047072B07D90848704753
:102C50000848242202FB03002830704703F10900D2
:102C6000044B242202FB0030F6E700BFE0140020F2
:102C7000241600209813002038B505460F4802F0AE
:102C800099FAB0B10E4C217845B181B943681B68FF
:102C9000984758B110F1440F08D038BD61B143686E
:102CA00029465B68984710F1100FF2D1257000207B
:102CB000F3E76FF01200F0E70846EEE78E830000BE
:102CC000216D00200949BFF35B8F51E8003F43F0BD
:102CD000010241E800200028F7D1BFF35B8FDB073A
:102CE00003D40839024804F006BE7047A813002038
:102CF000B817002010B5054C0021204602F0B8FCA2
:102D000018B1043004F05AFDF6E710BDF89C00201D
:102D100013B56C46002318222146134802F058FBD5
:102D2000002818DAFFF7E6FF0023182221460E4894
:102D300002F04EFB00280CDB009B94E803001A1DF8
:102D400082E8030004221A751846FFF76FFFFFF7A9
:102D5000B9FF002305E0009B94E803001A1D82E8F8
:102D60000300184602B010BDC89C0020817870B5E1
:102D700006460846FFF760FF0B060546F47813D5B4
:102D8000002C41D1FFF7C4FF034600283CD00122AC
:102D900085F82240027503220274DD60FFF746FFCA
:102DA000BDE87040FFF78EBF54B1012C2CD1FFF766
:102DB000AFFF034640B385F8214004750474ECE787
:102DC000FFF7A6FF00B3B27812F0800F02F00F03F6
:102DD0000E4A0FD0072B9BBF142101FB0323D2F80F
:102DE000A836D3F80836EB60012303750223037479
:102DF000C560D3E7072B9BBF142101FB0323D2F847
:102E0000A837D3F80837EEE770BD00BF0070024066
:102E1000F0B5064689B01822002102A804F0DFF9B7
:102E20003378013B052B20D8DFE803F07703141F2C
:102E3000671603238DF814300024FFF769FF03465B
:102E400098B105A9047500F10C0203C982E80300DA
:102E500018461DE00423EDE7B1780846FFF7ECFEC5
:102E6000837A05461BB1032B43D909B0F0BD0B068D
:102E7000F47812D5002CF8D1FFF74AFF034600285A
:102E8000F3D0012285F82240027503220274DD602E
:102E9000FFF7CCFEFFF716FFE7E75CB1012CE4D1AA
:102EA000FFF736FF03460028DFD085F82140047580
:102EB0000474ECE7FFF72CFF07460028D5D0012368
:102EC000037502230374C56005F10C01B07803F0AB
:102ED000EDFE134AE968B2F8B0328B4206D95B1AAC
:102EE000A2F8B03203F0F9FE3846D1E7A2F8B042BA
:102EF000FAE73046FFF73AFFB7E76846FEF7B8FC57
:102F00009DF80130052B04D19DF8003013F0600FBF
:102F1000ABD0044B059301248FE702248DE700BF5B
:102F20009813002004150020F8B500253F4F2E46C9
:102F300065F07F00C0B2FFF77FFE03690446002BF7
:102F400056D02369E660C4E9063301231D44082DE9
:102F500084F8203084F8216084F82260E8D10025CC
:102F6000324F2E46E8B2FFF767FE03690446002B96
:102F700049D02369E660C4E9063301231D44082DC6
:102F800084F8203084F8216084F82260EAD1284C4B
:102F9000D4F85831002B3FD0D4F85831C4F8603100
:102FA000C4F864310122002384F86821C4F8543144
:102FB00084F8693184F86A31D4F89C323BB94FF413
:102FC00080621C49194802F003FA002818DBD4F883
:102FD0009C32C4F8A4320020C4F8A832012384F83B
:102FE000AC32C4F8980284F8AD0284F8AE0209E06D
:102FF00000F110014022384602F0EAF90028A0DA78
:103000006FF00B00F8BD00F110014022384602F0CD
:10301000DFF90028ADDAF3E74FF4806204F5AC7114
:10302000024802F0D5F90028B6DAE9E7AC9C0020A6
:1030300098130020341600202DE9F043DFF87C922D
:103040009A4D85B080460021484602F011FB0746A4
:1030500010B905B0BDE8F0836B793A7D5BB9002A01
:10306000F1D13A7B042A52D8DFE812F0CD008F006C
:103070009900DB00E700042A49D801A151F822F0A9
:1030800063300000953000005132000079320000BA
:10309000893200003B7CFC68032B38D8DFE803F062
:1030A000023F5E63A66908220021304604F097F8CB
:1030B0007F4BD3F880243270D3F884247270D3F815
:1030C0008824D3F88C1442EA01227280D3F8902429
:1030D000D3F8941442EA0122B280D3F89824D3F8AA
:1030E0009C3442EA0323F3800823E3600021236831
:1030F000607A984796F90030002B0CDBF28852B1C9
:10310000B5F8B0329B1AA5F8B03203F0E6FD381DD1
:1031100004F054FB97E70023A5F8B032F7E794F8E2
:103120002130002BF3D094F82030002BEFD0002674
:1031300084F821604FF0FF3184F820605D4802F090
:10314000E7F9A36901936368CDE9023601A9607AC2
:10315000FEF7ECFA574802F04BFAD8E72368012152
:10316000607A9847D3E7A37A63B994F823304BB9D0
:103170004FF0FF314F4802F0CBF903F0C3FD4D484B
:1031800002F036FA23680221EAE7FEF785FA002802
:10319000BDD1FEF7A5F90120FFF76EFDB7E70024CA
:1031A00064F07F00C0B2FFF747FD037A13B1407AA5
:1031B000FEF7EEFD0134082CF2D195F850311BB129
:1031C00095F85101FEF7E4FD0024E0B2FFF734FD6D
:1031D000037A13B1407AFEF7DBFD0134082CF4D1F9
:1031E00095F894321BB195F89502FEF7D1FD0120B8
:1031F000FEF72CFA01236B712B68002B87D000217E
:103200000220984783E700246C71FEF77BFD20467F
:10321000FFF732FD2B68002B3FF479AF21460420E5
:10322000EFE7002B3FF473AFFEF786FD2B68002B12
:103230003FF46DAF00210520E3E72A68002A3FF440
:1032400066AF002B3FF463AF0021062090475EE796
:1032500008F10C044FF0FF31204602F059F9FFF756
:1032600063FE204602F0C4F958F8083C002B3FF4F6
:103270004EAF00210120C4E758F8083C002B3FF472
:1032800046AF00210A20BCE7002003F078FEFEF7DD
:1032900039FDFEF71BF9FFF72DFDFFF745FE012075
:1032A00003F06DFE0448FEF701FA30E798130020A2
:1032B00000700240AC130020112E0000F89C00208A
:1032C000B0F5907F10B517D0B0F5927F04D0B0F56F
:1032D0008E7F13D1012400E00224FFF719FD68B1AD
:1032E000002202750473FFF7A1FC054B1B792BB17B
:1032F000BDE81040FFF7E6BC0024EEE710BD00BFBC
:103300009813002038B51A4C257965BB194BA56078
:1033100004F11400C4E9033504F06CFA2A460121D3
:10332000272000F0EFFC1448FEF7C0F9134B984239
:103330001BD1012003F023FEFFF7F6FD054608B977
:10334000012323710E4B1B680BB1FFF7BBFC4FF041
:103350008043D3F83834DB0703D54FF48E70FFF782
:10336000AFFF284638BD0025FBE76FF00405F8E7FE
:103370009813002039300000112E00000000AD0B22
:10338000F89C002038B54FF0FF31274802F0C0F814
:10339000FFF7B0FC002464F07F00C0B2FFF74CFCE4
:1033A0000546103004F00AFA013424220021284690
:1033B00003F015FF082CEED10024E0B2FFF73CFC2F
:1033C0000546103004F0FAF9013424220021284681
:1033D00003F005FF082CF0D1144C04F5AC7004F098
:1033E000EDF92422002104F5A47003F0F8FE04F5A1
:1033F000277004F0E3F92422002104F5237003F080
:10340000EEFEFEF77FFCFEF761F80020FFF734FCCC
:10341000002003F0B4FD002504F11400257102F032
:10342000E7F8284638BD00BFAC13002098130020F1
:10343000064B1A7932B15B79002B0CBF6FF012008A
:10344000002070476FF01200704700BF98130020F3
:1034500038B50E4B1B790146A3B105782846FFF716
:10346000EBFB18B96FF01504204638BD45720B7997
:10347000498883724C1E0C404160F3D1284603F00A
:1034800010FCF1E76FF01204EEE700BF9813002084
:10349000114B1A7910B50146BAB15B79ABB1FFF7A0
:1034A000CBFB0446A0B1837A032B05D8DFE803F0F9
:1034B0000210090903F029FC0020A369E060E36120
:1034C00010BD0846FEF7AEF9F6E76FF01200F7E719
:1034D0006FF01500F4E700BF9813002008B50A4B01
:1034E0001A7901464AB15B793BB1FFF7A5FB38B1C8
:1034F0000846FEF79DFC002008BD6FF01200FBE7B8
:103500006FF01500F8E700BF9813002038B50B4B9B
:103510001A7905460C4652B15B7943B1FFF78CFB33
:1035200040B12846FEF78AF92070002038BD6FF0C0
:103530001200FBE76FF01500F8E700BF98130020BA
:103540000D4938B50B7905466BB1FFF775FB68B1CE
:10355000047A74B901230372487918B12846FEF73A
:1035600017FC204638BD6FF01200FBE76FF0150026
:10357000F8E76FF04400F5E7981300202DE9F043D9
:103580002F4C1F46237985B0064689469046002B6E
:1035900050D06379002B4DD003064ED5FFF74CFB7E
:1035A0000546002849D04FF0FF3104F1140001F026
:1035B000AFFF95F8223003F0FF024BB104F1140085
:1035C00002F016F86FF00A04204605B0BDE8F0835B
:1035D0006C68A86944452BBF4446012385F8232025
:1035E00085F823302246494603F0CCFDEC6007B154
:1035F0003C60AC7A4CB9FEF787F9B04205D003F0D5
:1036000081FB104801F0F4FFDEE7012385F822304A
:10361000AB6901930024EB68029301A9304603943F
:10362000FEF784F8084B98421CBF85F822406FF0E3
:103630000404E6E76FF01204C6E76FF01504C3E771
:1036400098130020AC1300200000AD0B2DE9F041D1
:103650001D461E4B90461A790F46002A30D05B79E2
:1036600073B303062FD411B9B8F1000F2BD1FFF7B4
:10367000E3FA044638B34FF0FF31154801F048FF34
:10368000E36843451E4628BF464657B9B8F1000FC8
:1036900007D105B12B600E4801F0AAFF0020BDE85C
:1036A000F0813246E169384603F06CFDE36933444A
:1036B000E361E3689B1BE360002DECD02E60EAE73A
:1036C0006FF01200EBE76FF01500E8E798130020A9
:1036D000AC13002038B51A4D2A79034632B36A7903
:1036E00022B31B0625D4FFF7A7FA044608B34FF010
:1036F000FF3105F1140001F00BFFE3688BB90125E0
:10370000A36984F82050E36194F821304BB1FFF7AE
:10371000FFFA88B10575C4600574FFF787FAFFF7F3
:10372000D1FA084801F064FF002038BD6FF01200A4
:10373000FBE76FF01500F8E76FF00B00F5E700BF4F
:1037400098130020AC13002008B5074B1B792BB150
:10375000FFF772FA28B10160002008BD6FF0120077
:10376000FBE76FF01500F8E798130020014B186095
:10377000002070479813002008B5074B1B7923B130
:10378000FFF75AFA20B1406808BD6FF01200FBE75E
:103790006FF01500F8E700BF98130020104B0022CF
:1037A00010B4C3F840214FF02002EFF3118482F3EC
:1037B0001188BFF36F8F0B4AD3F80405116840F2EC
:1037C0004713401A20F07F40B0FBF3F003FB0013D7
:1037D000136084F31188BFF36F8F10BC02F06CBCD0
:1037E000001001404C16002037B51F4801F0E2FCE4
:1037F000002835D043681D4D1B68012198470024DF
:1038000040F24713C5F80845C5F840354FF48033FA
:10381000C5F84433C5F8043303F1804303F58A53F4
:103820004FF400321C601B680193019B104B012177
:10383000C3F880211120224600F064FA112000F024
:103840002FFA0C4A012313602B60D5F8043503F2DC
:10385000471323F07F43C5F84035204603B030BD01
:103860004FF0FF30FAE700BF8483000000100140F2
:1038700000E100E0081001404CF6690270B5B0F1BB
:10388000FF3F08BF10464FF02003EFF3118483F38E
:103890001188BFF36F8F1349134DD1F804352E688B
:1038A00001389042A8BF10469A1B22F07F4240F296
:1038B000471502F5A37220EAE07005FB0020B0FB7B
:1038C000F5F005FB0060C31A23F07F431F2B98BF60
:1038D000401920F07F40C1F8400584F31188BFF300
:1038E0006F8F70BD001001404C1600204FF0200279
:1038F000EFF3118382F31188BFF36F8F084AD2F878
:103900000405084A1268801A20F07F4040F24712EE
:10391000B0FBF2F083F31188BFF36F8F704700BFE5
:10392000001001404C16002004488168006A88425B
:1039300003D003494FF080520A607047801700207F
:1039400004ED00E0044800232021C2180133302B8D
:1039500082F80013F9D1704700E100E0094A0A49F2
:10396000936809689966094958664B6843F0805323
:103970004B60002383F31188BFF36F8F9368986EB9
:10398000704700BF801700207880000000ED00E045
:10399000202080F31188BFF36F8F11498A684FF0A0
:1039A00028001044EFF3098C80E8F01F0D4F4FF012
:1039B00000660A6A8A603E60506E0023536680F398
:1039C000118804B50648806803F021FBBDE8044077
:1039D00002F1280090E8F01F8CF30988704700007E
:1039E0008017002004ED00E01EF0040F0CBFEFF381
:1039F0000880EFF30980816931F8021C11F0FF01A2
:103A00000229FFD001B503F0F3FA01BD38B51B4C14
:103A100005461B4802F0B4FFA36AD90602D519482F
:103A200002F0AEFFA36A1A0702D5174802F0A8FFFA
:103A3000A36A9B070ED5154802F0A2FF616BA36A2B
:103A4000180607D5124802F09BFF1DB1A36A23F0A8
:103A50008003A362094CA36ADA0702D50D4802F07D
:103A60008FFFA36A9B0602D50B4802F089FFA36A69
:103A7000A36A43F0FF03A362002038BD00ED00E01D
:103A800030840000478400007B8400008F840000A5
:103A9000A8840000BF840000DF84000038B51E4CFD
:103AA00005461E4802F06CFFA36AD90402D51C48E3
:103AB00002F066FFA36A1A0502D51A4802F060FFF9
:103AC000A36A9B050ED5184802F05AFFA16BA36AA2
:103AD000180407D5154802F053FF1DB1A36A23F45B
:103AE0000043A3620C4CA36A590502D5104802F0AA
:103AF00047FFA36ADA0509D50E4802F041FF064ADE
:103B0000936A43F47F439362002038BDA36A9B0409
:103B1000F5D50948F1E700BF00ED00E0A283000001
:103B2000B98300007B840000CB830000E5830000A4
:103B3000FB83000017840000DF84000010B5194CDF
:103B4000194802F01DFFA36A9A0102D5174802F036
:103B500017FFA36ADB0102D5154802F011FFA36A23
:103B6000180302D5134802F00BFF0E4CA36A590349
:103B700002D5114802F004FFA36A9A0302D50F4848
:103B800002F0FEFEA36ADB0302D50D4802F0F8FE48
:103B9000044A936A6FEA03436FEA13439362002077
:103BA00010BD00BF00ED00E00F850000288500007B
:103BB0003C85000057850000768500009C8500004C
:103BC000B785000038B5274C6368C3F30803DA1ED5
:103BD0000546092A3AD8DFE802F00533353039398D
:103BE00039393937204802F0CBFEE36A9A0703D50A
:103BF0001E4802F0C5FE02E0E36A5B0005D4002027
:103C00002946BDE8384000F0DFB8194802F0B8FE98
:103C1000184B1B782BB10120FFF7F8FE0628EFD1D7
:103C200038BD154B1B781BB10120FFF737FFF5E7B7
:103C3000124B1B889BB2002BE1D0FFF77FFFEDE713
:103C40000020E9E70020F0E70D48D2E70D480E49D3
:103C5000A3F110020F2BD8BF01460C4802F090FED2
:103C6000CDE700BF00ED00E01186000029860000CE
:103C70004B86000028ED00E029ED00E02AED00E091
:103C80006B860000E3850000F8850000A286000036
:103C9000024A536943F010035361704700ED00E09E
:103CA00043B2002B08DB012200F01F0002FA00F0F3
:103CB0005B09024A42F82300704700BF00E100E0C0
:103CC00043B2002B0DDB01225B0900F01F0002FA5A
:103CD00000F02033034A42F82300BFF34F8FBFF3B5
:103CE0006F8F704700E100E04209054B00F01F00B4
:103CF00053F82220012303FA00F01040704700BF60
:103D000000E100E043B2002BA8BF03F1604301F1E2
:103D100001014FEA4111AEBF03F5614300F00F000E
:103D2000034BC9B2ACBF83F800131954704700BFEE
:103D300014ED00E02DE9F0418C18884617461E4628
:103D400004220A9B0999054603F0E9FEA4F1200329
:103D50000C4923F00703002221F00101C5E91322D9
:103D6000C5E916879961069959600799996008997C
:103D7000D9604FF080711E60D961AB646A66BDE89E
:103D8000F08100BF57660000014910220A607047A9
:103D900010ED00E0404080F3118830BF704700BF55
:103DA000404080F31188DFF81CC0DCF800C01CF430
:103DB000006C0CBFEFF30880EFF3098001B5FFF74B
:103DC00001FF01BD04ED00E038B504460D460528AD
:103DD0001AD8DFE800F00319191315170D4802F07F
:103DE000CFFD01F06DFFAA6901460B4802F0C8FD46
:103DF00029462046BDE8384000F018B80748EEE7ED
:103E00000748ECE70748EAE70146074802F0B8FD33
:103E1000E7E700BFB686000054870000D6860000A2
:103E2000FC8600001687000031870000052810B5C9
:103E30000CD001F0ADFF60B101F0AAFF0C490D4BB1
:103E4000002808BF19460C4802F09AFDFFF7A2FFB0
:103E5000FCE701F0ADFF0028EED1084C0848A1684E
:103E600002F08EFDA068BDE8104000F00BB800BF66
:103E70009087000094870000A5870000801700202D
:103E8000C587000038B505464FF02003EFF31184D5
:103E900083F31188BFF36F8F03F022FE0A4B9B68F8
:103EA000AB420BD1094B5A68C2F3080212B9204643
:103EB000FFF754FD5A6842F080525A602046BDE830
:103EC000384003F04DBD00BF8017002000ED00E03A
:103ED00001B5EFF30580A0F110004FEAC0000449DE
:103EE000014409C99847BDE8014002480047000065
:103EF000007C00002939000003F07EF800F004F88F
:103F000030BFFFF7FDBF00BF08B50E4B83F3098834
:103F1000EFF3148343F0020383F31488BFF36F8F2E
:103F2000094B0A4A23F07F039360BFF34F8FBFF31F
:103F30006F8F01F06BF901F073F9FFF703FD01F0EA
:103F40009DF900BF889600200000000000ED00E011
:103F50001FB5094B0193094B029304A8084B039327
:103F600001AB40F8103D074A074B012100F076F8FD
:103F700005B05DF804FB00BF000000200000000059
:103F800000000B06000000200000042030B5D1E93D
:103F90000043202B896817D9B3F1004F16D8013B95
:103FA000B3FA83F3C3F11F035B00072841F001015B
:103FB0000ED824F01F02084D024342F010020B43BA
:103FC000A860EA602B6130BD0823EEE73E23ECE7F2
:103FD0006FF01500F7E700BF90ED00E0034B0522FE
:103FE0005A60BFF34F8FBFF36F8F704790ED00E0C3
:103FF000BFF35F8F014B00225A60704790ED00E0E5
:1040000013490868082810B51ED8FFF7F1FF114CB6
:1040100049680022904201F10C0105D10E4B187045
:10402000FFF7DCFF002010BDA26051F80C3C23F02C
:104030001F0343F010031343E36051F8043C43F0C3
:10404000010323610132E5E74FF0FF30EBE700BFEA
:104050004C7E000090ED00E0226D0020F8B5104C81
:10406000074620780E460025B54208DA57F8251095
:104070004B6893B15A1E134203D06FF015002070A5
:10408000F8BD1F2BF9D90B681A42F6D1C0B2FFF761
:104090007DFF10F1160FF0D001300135E4E700BFCD
:1040A000226D002070B5104B064618780D4600248E
:1040B000AC4207DB10F1160F03D00C4B002207288F
:1040C0000DDD70BD56F824104B6833B1C0B2FFF758
:1040D0005DFF10F1160FF4D001300134E8E798606D
:1040E0001A610130EBE700BF226D002090ED00E087
:1040F0002DE9F04FC9B0CDE90C011F4600239346CE
:1041000004939BF800000BF1010548B125287BD0F2
:10411000DDE90C319847013006D14FF0FF330493AD
:10412000049849B0BDE8F08F049B0133CDE9043712
:10413000AB46059FE5E7232C5FD054D8002CEFD089
:10414000202C08BF4FF001095D46AB46BF481BF865
:10415000014B214602F0DCFF0028ECD12A2C5BD178
:104160003A680392002AB8BF524207F10403B8BF6D
:1041700003926C78BCBF0122069205F1020B1F4628
:10418000039BC92B28BFC82303932E2C69D19BF80E
:1041900000302A2B62D13D680BF1010B0437C92D89
:1041A0009BF80040A8BF4FF0FF350BF1010B2146F3
:1041B000A74802F0ADFF18B19BF800400BF1010BCE
:1041C000672C7CDC652C80F2E080472C4CDC452C95
:1041D00080F2DB80002CA3D0252C00F03583C82C86
:1041E00040F33C8399E72D2C0BD0302C07D02B2C9F
:1041F000079B08BF01230793A6E70126A4E70294C3
:10420000A2E7012306939FE74FF0000920230293C2
:10421000CDE906994E4698E7A4F13003092B0390A7
:10422000B3D80A22AB461BF8010BA0F13003092BCF
:104230000446A5D8039B02FB0300A0F130030393BF
:104240005D46EFE700FB0535303D93465A4612F8D0
:10425000013BA3F130010929F4D9A0E700250A2088
:10426000F4E74FF0FF35A2E7632C6FD032DC582C17
:10427000B5D13B1D05933968002E00F0DC8247F66E
:104280003003ADF854300DF156072B461022384656
:1042900002F0C6FF582C06D10DF1530212F8013F6F
:1042A000002B40F0CA820DF15408002EA7EB08083D
:1042B000404414BF4FF002094FF0000929E0702C70
:1042C00000F094822BDC6E2C00F0538200F35782B6
:1042D000692C84D13C683B1D002C059342DA2D23C8
:1042E000B4F1004F8DF8543041D061420DF15508C2
:1042F0002B4640460A2202F093FF079B804415A8F4
:10430000A8EB0000002B3DD1B9F1000F01D14FEA1D
:10431000D4790135029B18BF2023029380E0752CCD
:1043200000F08082782CA4D0732C7FF458AF3B1D12
:104330003968059300268B5D002B00F066820136FC
:10434000C82EF8D1002D80F2628266E23B1D0593F3
:104350003B688DF8543000238DF8553001264FF01E
:1043600000091CE2079B23B12B238DF85430214612
:10437000BCE7B9F1000F01D02023F6E721460DF18B
:104380005408B5E7DDF81C90C3E7073727F00707A7
:1043900007F10803D7E900C70593FB0243EA5C5322
:1043A00023F000414FEACC220B46C7F30A58CDE96F
:1043B000102340F2FF7310469845CDE90001604696
:1043C00048D10028DDE9001277F10003B8BF2D23A2
:1043D00015A8B6BF8DF8543003460DF155030A43B6
:1043E000A4F1410403F1030825D1192C1DD8492259
:1043F0001A704E225A7046229A700022DA70079B79
:10440000A8EB0000002B40F05682B9F1000F07D155
:104410009DF85410A1F12D03D3F1000949EB0309D4
:10442000C8283FF77AAE0646B9E169221A706E22B3
:104430005A706622E0E7192C99BF4E2241216E2264
:10444000612194BF1A701A705970D5E7EA8700008D
:10445000F0870000DDE90023462C42EA080243EA27
:10446000E87308BF6624134343D0DDE90023002826
:1044700043F00043CDE9102377F10003A8F2FE38A2
:1044800039DA2D238DF854300DF1550A00230093AD
:1044900018F1020F3EDBB8F1000F79DC10A808F12B
:1044A000010802F0E5FEB8F1040FF7D1002D24F069
:1044B0002003B8BF0625472B40F09780002E40F020
:1044C00092802B1C18BF01230893009B033304DB4D
:1044D000009A6B1C9A4240F38D80672C0CBF6524B8
:1044E000452405F10108102398450F93A8BF98466D
:1044F00089E04FF00008079B0BB12B23C2E7B9F10D
:10450000000F01D02023BDE70DF1540ABEE710A82B
:1045100002F0AEFEDDE9107C00230B93CDF828C03D
:10452000DDE90A01A84A00238B4208BF824208F154
:104530000108ECD30522A7FB0201CDE90801099B84
:1045400002FB0C330993DDE90823CDE91023009B1E
:10455000013B00934FF0000C099A002300216FF0FB
:104560000040994208BF904207D2BCF1000F8FD0A3
:10457000DDE90823CDE910238AE7DDE90823921855
:104580005B41CDE9082308F1FF384FF0010CE3E768
:1045900010A802F081FE009B01330093DDE9102397
:1045A000CDE9082308F1FF384FF0000C099A0023E9
:1045B00000216FF00040994208BF904208D2BCF140
:1045C000000F3FF468AFDDE90823CDE9102362E76F
:1045D000DDE9082392185B41CDE9082308F1FF3893
:1045E0004FF0010CE2E700236EE70023662C0893EE
:1045F0007FF477AF009B13EB05084BD510230F9387
:1046000066244FF0000848A900224FF0006361E9DA
:10461000362318F1FF383FD2DDE91023DDE912011E
:10462000171843EB01083A464346CDE9102308F03A
:1046300070420023134308D010A802F02DFE10A8EA
:1046400002F016FE009B01330093662C0AF101086C
:1046500040D1009B002B29DD534498460FA910A898
:1046600002F04BFE0AF8010BC245F7D1002300937C
:1046700006B95DB12E2388F80030464608EB0503E5
:104680004FF0300AB34215D10135A844089B002BE6
:1046900039D160E0662426E708460A9102F0FCFD65
:1046A0000A99084602F0E4FD0A99B2E730238AF835
:1046B0000030DDE7009A2AB1013286F801A00092AD
:1046C0000136DFE70FA910A80A9302F016FE0A9B35
:1046D0007070F5E70FA910A802F00FFE302818BF80
:1046E000009B8AF800001CBF03F1FF33009306B95A
:1046F0003DB10AF102082E238AF8013045444545B0
:104700002ED1089B43B118F8012C302A08F1FF3351
:104710002DD02E2A08BF984624F02003452B1AD10D
:10472000009B88F80040002BBBBF5B4200932B230B
:104730002D2388F801300A22009B93FBF2F303F14A
:10474000300188F80210009902FB1317303788F8FF
:10475000037008F10408002388F8003015A84EE61D
:104760000FA910A802F0C9FD08F8010BC7E7984689
:10477000C9E73B1D05933B68049A1A60D9E43B1DC9
:104780000593396816B330238DF8543059BB013581
:10479000029B8DF8551018BF202389460293039B76
:1047A000B34240F38680069B15AD002B58D02023E2
:1047B000039AAB550136B242FAD1DDE9033215ACAA
:1047C00013441D46A41A70E03233333315A80DF19B
:1047D00054082B460822A0EB080802F021FD4044B3
:1047E0004FF0000995E50DF15500F0E73B1D0593ED
:1047F00047F63003ADF854303968082310220DF124
:10480000560002F00DFD0230EAE7002D02DBAE4259
:10481000A8BF2E46002E3FF48CAC324615A802F0FD
:10482000B1FC9CE53B1D05930A222B46396815A86F
:1048300002F0F6FCD4E715AF27E5A3F161011929D1
:104840009CBF203B137029E50D990C9B204698478F
:1048500001303FF462AC049B01330493059768E494
:10486000039B9C1B721C2819294602F074FC069BB2
:10487000029A202A18BF4B4606931C44069BA3426B
:104880009BDA069B1A469DF80830AB541346013359
:104890000693F3E7049B0D99E05C0C9B984701306D
:1048A0003FF43BAC049B01330493049BAB42F1D136
:1048B0003FE4039681E7DDF81C90B1E50EB40FB537
:1048C00005AB6FF0004153F8042B029003910648AA
:1048D000019302A9FFF70CFC029B00221A7004B09E
:1048E0005DF804EB03B070473173000008B5094B65
:1048F0001A786AB90121197006200521FFF702FA1A
:104900000620FFF7CDF9044B4FF00042C3F8042313
:10491000002008BD236D0020006000401F288ABFD2
:10492000094B4FF0A04300F01F0003EB8000D0F8CC
:10493000003723F44033C0F80037D0F8003743EA9B
:104940000141C0F80017704700030050F7B5036835
:1049500086689B6801F01F040D464C491B79D1F80D
:10496000042344EA4314D2B2002303F5A27051F8A1
:104970002000C0F3052084426CD122FA03F0C00766
:1049800068D59A0002F1804202F5C042D2F81005C3
:1049900020F00100C2F81005012202FA03F3C1F869
:1049A000083320460021FFF7B9FFB068E84010F057
:1049B00001004DD0F068E84010F0010048D0706967
:1049C000E84010F0010251D0B369EB40DB0745D459
:1049D0003369F269EB4022FA05F503F0010305F0B3
:1049E0000105AB420CBF02250125284F002101F52E
:1049F000A27357F8230010F0030031D18A0002F1AE
:104A0000804303F5C0432402D3F8106526F44F36E3
:104A100026F44076C3F81065D3F8106504F47C548E
:104A200002F1804202F5C24244EA05453543C3F82B
:104A30001055106012680192019AD3F8102542F0C7
:104A40000102C3F81025012303FA01F1C7F804138A
:104A500003B0F0BD0133082B87D1A2E70325C4E7DB
:104A600001310829C3D16FF01200F1E7F169336910
:104A70004B4023FA05F515F0010F20460CBF03212A
:104A80000221FFF74BFF1046E2E700BF0060004045
:104A90002DE9F84F0746856803F47040B0F5804F64
:104AA0001E4647D02ADCB0F5805F3BD0B0F5405FB2
:104AB0003CD050BB06F44078B8F5807F3CD0A8F5D8
:104AC00000746342634106F0010C4FEA4C0801296F
:104AD00048EA0C0818BFD4B248EA0020DFF8D4A096
:104AE00012BFA1464FF01F09002440EA83084FF08F
:104AF000010BA14522D20020BDE8F88FB0F5E04FB0
:104B000016D005DCB0F5A04F0ED06FF01500F3E71E
:104B1000B0F5404F04D0B0F5504FF6D10720C9E7AB
:104B20000620C7E70120C5E70320C3E70420C1E74B
:104B30000520BFE70220BDE70323C4E73B689B686D
:104B40001A7904F01F0343EA42131F2BC6BF03F078
:104B50001F0352464FF0A04203F5E073B10742F83D
:104B60002380AB680BFA04F24CBF13439343AB6052
:104B70006B69B0064CBF134393436B61AB6971061D
:104B80004CBF13439343AB612B6970074CBF134376
:104B900093432B61EB6931064CBF1A4323EA0202AF
:104BA000EA6121463846FFF7D1FE0028A4D101343E
:104BB000E4B29EE700030050F0B5002685B0CDE9D1
:104BC00002662B4D2C68012C0BD12A4802F030FCD8
:104BD0000290294802F02CFC03902E602B68009371
:104BE000009B264E002301279C46D6F8042307FA93
:104BF00003F111421ED003F1805202F5C25292001D
:104C00001168012916D103F5A2700DF1100E56F8A6
:104C10002050C2F800C0C5F340300EEB8000C5F351
:104C20000425A940126850F8085C01922943019AB2
:104C300040F8081C0133082BD7D1029A1AB10D494C
:104C4000886802F082FB039A2AB10A4B03F10C0137
:104C5000586902F07AFB012C08D1064802F011FCD9
:104C6000054805B0BDE8F04002F00BBC05B0F0BD52
:104C70007C610040349C0020409C0020006000408B
:104C800002480021C2E90001002070470024F4001E
:104C900008B503689868002200F10801FCF714F8D1
:104CA000034B984214BF6FF00F00002008BD00BFF7
:104CB0000000AD0B2DE9F0479846036884689E68B4
:104CC0000F4606F10801154606F10C000B46A3EB52
:104CD000010913F8012BFF2A5FFA89F903D022F0AA
:104CE0008002974224D08342F1D16FF01500BDE8D5
:104CF000F087B5F5004F17D3002325FA03F2B2F57C
:104D0000004FD9B20CD2A173A281B27BA389A17B3F
:104D10002560CAF80C15CAF80425CAF8083511E050
:104D20000133082BE9D1E0E70123A373A581ECE768
:104D30003046D6F800A0FCF79DF80028D9D12368AA
:104D40009D42D2D14545D0D304EB4901A27B8B884B
:104D500028FA02F203F4004313438B80B8F1000FEA
:104D600001D0454512D1B14499F90830B8F1000F8E
:104D700036D135BB1F2F86BF07F01F071B4B4FF0E7
:104D8000A043012101FA07F7C3F80C75221D04F1B5
:104D90000C0132F8023BC3F30E0313B1A089984211
:104DA00007D89142F5D10021304601F0D3FE002012
:104DB0009DE70223012206F114013046FCF720F89A
:104DC000F5E7002BD6DA1F2F86BF07F01F07074B2A
:104DD0004FF0A043012101FA07F7C3F80875D5E7A2
:104DE0004545F0D1002BC5DBEDE700BF00030050C7
:104DF000024AD2F80034002BFBD0704700E001409B
:104E0000024B0B6001231360704700BF9016002017
:104E1000012208B51146064802F053FE4FF08052B9
:104E2000044B5169196012695A60002008BD00BF27
:104E300098160020901600202DE9F0410D464FF005
:104E4000805811462846D8F81070B2FBF7F4164681
:104E500002F080FB40B3B5FBF7F307FB13531BBB1A
:104E600007FB146707BB14B34FF0FF31114800F084
:104E700053FF11490223D1F80445D8F81000C1F8B6
:104E80000435FFF7B5FFC1F80855FFF7B1FF361A33
:104E90000544F8D1C1F80445FFF7AAFF054800F022
:104EA00015FF3046BDE8F0816FF01500FAE72046A7
:104EB000F8E700BF9816002000E0014010B50A484E
:104EC0000C464FF0FF3100F027FF084B4CB1002299
:104ED000C3F80425FFF78CFF034800F0F7FE00201D
:104EE00010BD0122F4E700BF9816002000E0014049
:104EF0002DE9F3410E463046194614461D4602F090
:104F000029FB002848D0002D49D04FF0FF3125481B
:104F100000F002FF16F0030018D026F0030802ABE1
:104F2000C0F10407D8F8002043F8042DAF4228BF91
:104F30002F46214618443A4602F024F9FFF758FF5D
:104F4000019BC8F800303E443C44ED1B25F00307AC
:104F5000E0192146341B04E0FFF74AFF0B680B51B0
:104F600004318142F8D1AA086FF0030000FB02521D
:104F70004AB102A8F35940F8043D02F003F9FFF7E3
:104F800037FF019BF351FFF733FF064800F09EFE09
:104F9000002002B0BDE8F0816FF01500F9E7284667
:104FA000F7E700BF9816002070B54B79012B23D18D
:104FB0008B79032B20D1CC792CB1012C1CD1036827
:104FC0009B681B79C3B10A7912B1022A14D10E224F
:104FD00003689B681D680B6847F61226B3426BD0C6
:104FE00027D8B3F5965F61D012D8B3F5167F4DD0B0
:104FF00005D8B3F5967F74D06FF0220052E0B3F578
:10500000966F50D0B3F5166FF6D14FF41D233FE0E5
:10501000B3F5615F4CD004D8B3F5165FECD1324BD9
:1050200036E0B3F5964F45D0B3F5E14FE4D12F4BC1
:105030002EE0B3F5E13F48D012D84DF6C026B3427A
:105040003DD005D8B3F5164FD6D14FF41D031FE060
:10505000B3F5614F36D0B3F5963FCDD1244B17E071
:10506000B3F5E12F37D008D8B3F5613F30D0214EEA
:10507000B342C1D14FF080630AE0B3F5612F2DD068
:105080001D4EB342B8D14FF0805301E04FF41C33B2
:10509000C5F82435836803C92243C5F86C2583E825
:1050A0000300002070BD4FF49E23F1E7134BEFE7A0
:1050B000134BEDE7134BEBE74FF40003E8E74FF436
:1050C0006503E5E74FF46B03E2E74FF0EB73DFE7CF
:1050D0004FF06C73DCE74FF0E863D9E74FF0706393
:1050E000D6E74FF4A033D3E70050270000C0750087
:1050F00000903A0190D0030040420F0000B013002E
:1051000000F03A0000A04E00F8B50022064601214A
:105110000220FEF7F7FD0220FEF7C2FD3368B568F6
:105120009B681C68174B03220827C3F80875C3F84F
:105130000C270022C3F828272323C4F80C352A2380
:10514000C4F8143529463046FFF72EFF0246B0B9A1
:105150004FF48871C4F80075204602F02CFAA96853
:1051600005F10C03C4F8343589680123C4F83835D7
:105170002360C4F84415C4F84825A360E3601046D2
:10518000F8BD00BF00030050094B70B553F8204034
:105190000130002653F82050A54200D870BD236886
:1051A00020465B68984700B166600C34F4E700BFA6
:1051B00064800000104B70B5104C05461E469C42A2
:1051C00004D10E4CB44209D1002412E062681AB135
:1051D00022681268AA420CD00C34F0E763680BB95D
:1051E0000C34EFE723682846196801F0A7FF002870
:1051F000F6D1204670BD00BFAC9C0020E09B002093
:10520000014B986854307047801700200248034AC9
:105210000021121A01F0E3BF00000020486D0020B9
:1052200008B50648064A0749121A01F0ABFF064ABC
:1052300006490748BDE8084001F0A4BF889A00204D
:10524000149E00202C880000000000002C88000024
:105250000000002008B50220FFF796FF0320FFF7AB
:1052600093FF00F01DFEFBF715FA034A137B23F0B2
:105270000103137308BD00BF1417002080B53D4B18
:10528000A2B083F308883C4B3C4E5A693C4D42F433
:1052900000725A610024E02283F82220DC771C7619
:1052A0005C769C765A6A42F4E0225A62FEF7F0FC81
:1052B000FEF76AFD07AB21466C22184601F08FFF0E
:1052C0000127B06020468DF82970FFF75DFF384652
:1052D000FFF75AFF00F052FC2A4B35624FF40052A0
:1052E000CDE90473CDE90244CDE90044264B2749BA
:1052F000284600F089FD6B7B23F0040213F01B0F9E
:105300006A73344604D1AB6913B9284600F09AFA9F
:105310001F4B204E059301220F23CDE903320023BA
:105320004FF4A0721C4900933046CDE901331B4B6A
:1053300000F06AFD737BE66023F004037373184B7F
:10534000C4E90633FEF704FE0D48A56001F05FFED8
:105350000D4B144A184682F3098863B64FF00001DA
:1053600081F31188BFF36F8F00210022002301F029
:1053700072F900BF8896002000ED00E08017002041
:10538000141700200E88000055520000486D0020C0
:1053900013880000A8160020488D0020CF7B000055
:1053A00098170020488D002038B5074C074DAC42B7
:1053B00001D3002038BD04F114032046C4E90533AD
:1053C00000F092FF1C34F2E7AC9C0020E49C00202B
:1053D0002DE9F04F1D1E85B006460C46174659DDD7
:1053E00000F0C0FE80462C484FF4004C00214FF4E2
:1053F000A0220023CCFB0501FAF782FE18EB000285
:10540000264B9046F31A264A9B1002FB03FA5FFADA
:105410008AFA06F1140B009403AB02AA394630460F
:1054200000F0ADFF10F10B0F0BD1009403AB02AAFB
:105430003946304600F0A3FF10F10B0F08BF6FF0A4
:105440000B006379029A84F804A062F3030363718A
:105450006368039A62F31F336360C0B1BDB110F19A
:105460000C0F14D14FF02003EFF3118083F3118858
:10547000BFF36F8F2A46594600F0FAFA6B1CCAD068
:1054800000F070FEB8EB0005C5D56FF00A0005B05E
:10549000BDE8F08F0022B3E7FFFF0400AC9C0020C2
:1054A000B76DDBB670B5047802684178114EC4EB75
:1054B000C404A400120B01F00F01301901F026F80A
:1054C0004FF02003EFF3118583F31188BFF36F8F43
:1054D00004F11400304402F0DEFA28B129460648EF
:1054E000BDE8704002F02EBA85F31188BFF36F8FCC
:1054F00070BD00BFAC9C0020446D0020034B9B6836
:105500000146186E08B102F05CB9704780170020A0
:1055100070B50D4634498B68DA7B013A0446DA737C
:10552000C26808464AB1A36889688B4212D09DB907
:1055300000F06CF96FF00F050AE08B6893F90E30FC
:10554000236101328368E260A36000F05FF9002507
:10555000284670BD2369F3E791F90E1093F90E30D8
:105560009942A8BF194621EAE1714FF02003EFF3F9
:10557000118683F31188BFF36F8FA06890F90E3006
:10558000994201DA00F0ACFA2B4622463146174820
:1055900000F092FA054610B900F038F9D8E7236810
:1055A00021699C4207D033B193F90E309942A8BFCC
:1055B000194621EAE1714FF02003EFF3118583F3DF
:1055C0001188BFF36F8FA06890F90E30994201D017
:1055D00000F086FA85F31188BFF36F8F00F016F99B
:1055E0006FF00A05B4E700BF80170020446D00206B
:1055F0001E4B9A68D37B013B70B50446D373C368D6
:10560000012B05D0013BC360BDE8704000F0FEB83F
:105610004FF02003EFF3118683F31188BFF36F8FF0
:105620000169806890F90E30994201D000F058FA73
:10563000204602F003FA0546A06080B1437BDB06FA
:1056400003D183690BB900F0FDF886F31188BFF32D
:105650006F8F0023AB6695F90E302361D4E7E060CD
:1056600086F31188BFF36F8FCEE700BF801700204D
:1056700038B54FF02003EFF3118583F31188BFF3A2
:105680006F8F046884B12368426823F00303944257
:10569000036008BF43600121204602F018F985F33A
:1056A0001188BFF36F8F38BD29B985F31188BFF317
:1056B0006F8F0846F7E700F108020B4610462946AF
:1056C00000F0FAF918B9034B9B685869EBE72046DC
:1056D000E9E700BF80170020EFF305800D2809D807
:1056E00028B1054B586880F40060C0F3C02080F0FA
:1056F000010070470120FAE700ED00E008B5FEF771
:10570000F5F8054B054A1B6818441061002118463E
:10571000BDE8084002F031BAB4170020801700201D
:10572000F8B50D464FF02003EFF3118483F3118891
:10573000BFF36F8F0D4E0E4B4FF400410027C1FB9E
:10574000006700221A6130464FF4A0220023394638
:10575000FAF7D6FC074B1860074B1D60FFF7CEFF2A
:1057600084F31188BFF36F8FF8BD00BFFFFF040003
:1057700080170020B4170020B01700204FF020033E
:10578000EFF3118183F31188BFF36F8F044B9A6895
:10579000D37B013BD37381F31188BFF36F8F7047C5
:1057A00080170020094B03F12402824205D19B6837
:1057B0008B4202D14B7BDB0607D1D1E900231A6073
:1057C0000A6853600023C1E9003370478017002046
:1057D00038B50D4C024604F1240002F0F8F80546F5
:1057E00000B9E568A3684AB95A7BD20606D1AA690E
:1057F00022B9DA897F2A01D9236238BD9D4201D0BE
:10580000FFF77CFF2562F8E78017002010B54FF006
:105810002003EFF3118483F31188BFF36F8F084BDC
:105820009A68D37B0133D3730120FFF7D1FF84F350
:105830001188BFF36F8FBDE8104002F0A0B800BF21
:1058400080170020F8B54FF02003EFF3118483F3A5
:105850001188BFF36F8F164A114651F8243F8B42CF
:105860000CD05BB1966A90F90E5093F90E70AF426E
:105870000BDCB34202D01B68002BF6D1936A436065
:10588000936A01601860906205E05A68C0E90032CE
:105890005A6810605860437B43F040034373002014
:1058A000FFF796FF84F31188BFF36F8FF8BD00BF39
:1058B00080170020F8B504464FF02003EFF311865F
:1058C00083F31188BFF36F8F194F07F12405014649
:1058D0002846FFF767FF7B6AAB423A460CD05BB1C4
:1058E000B86A94F90E1093F90E708F420BDC834264
:1058F00002D01B68002BF6D1936A6360936A25601F
:105900001C60946205E05968C4E9003159680C6074
:105910005C60637B906843F040036373031B5842F1
:105920005841FFF755FF86F31188BFF36F8FF8BD1D
:10593000801700201449154A8B6810B51468A342DB
:1059400003D1BDE81040FFF7D9BE00241460104A0F
:105950001268BAB1DA897F2A14D80E4A93F90E4038
:10596000126894420EDB0C4A126893420AD09A697C
:1059700042B90A69824203DC1846FFF79BFFE0E761
:10598000121A0A6110BD00BF80170020AC1700205A
:10599000B4170020B01700207C80000038B5044602
:1059A0004FF02003EFF3118583F31188BFF36F8F5E
:1059B000437B5A0607D501460948FFF7F3FE637B90
:1059C00023F040036373074B9868031B5842584108
:1059D000FFF7FEFE85F31188BFF36F8F38BD00BF60
:1059E000A41700208017002070B504460D46164607
:1059F000FFF7D4FF637B43F002036373EDB12B68C1
:105A0000A5609D420CD05BB194F90E2093F90E1065
:105A100091420CDC69688B4202D01B68002BF5D1E7
:105A20006B6863606B6825601C606C6005E05A6899
:105A3000C4E900325A6814605C60731C12D00A48D2
:105A40004FF4004500214FF4A022C5FB06010023BE
:105A5000FAF756FB0549421C04F11800BDE87040F6
:105A600000F0E6BA70BD00BFFFFF0400DB79000064
:105A700070B50F4D0F4C0646A868FFF7B5FFAB6831
:105A800023603046FDF76AFF4FF02002EFF31183E9
:105A900082F31188BFF36F8F2268A968914204BF17
:105AA0000022226083F31188BFF36F8F70BD00BFA7
:105AB00080170020AC17002010B50C461146064A8E
:105AC0009068064A10601A46FFF78EFF2046BDE830
:105AD0001040FDF743BF00BF80170020AC17002027
